:020000040800F2
:1010000000500020395E0008355E0008335E00089D
:10101000335E0008335E0008335E00080000000005
:10102000000000000000000000000000355E000825
:10103000355E000800000000355E0008355E0008DF
:10104000335E0008335E0008335E0008335E00083C
:10105000335E0008335E0008335E0008335E00082C
:10106000335E0008335E0008335E0008335E00081C
:10107000335E0008335E0008335E0008335E00080C
:10108000335E0008335E0008335E0008E13200087A
:10109000C1320008D1320008335E0008335E000818
:1010A000335E0008335E0008335E0008335E0008DC
:1010B00051150008335E0008335E0008335E0008F7
:1010C000335E0008335E0008335E0008335E0008BC
:1010D000335E0008335E0008335E0008335E0008AC
:1010E000335E0008335E0008335E0008335E00089C
:1010F000335E0008335E0008335E0008335E00088C
:10110000335E0008335E0008335E0008335E00087B
:10111000335E0008335E0008335E0008335E00086B
:10112000335E0008335E0008335E0008335E00085B
:10113000335E0008335E0008335E00080F3300089A
:10114000EF320008FF320008335E0008335E00080B
:1011500010B504460846114664681A46A04710BDFB
:1011600008B58368984708BD10B5194C002240F2B5
:101170000561206802F0F9F800224FF4D771206869
:1011800002F0F3F8002240F20151206802F0EDF87D
:10119000002240F20251206802F0E7F8002240F2FB
:1011A0000351206802F0E1F8002240F20451206867
:1011B00002F0DBF8002240F20331206802F0D5F89B
:1011C000002240F20141206802F0CFF810BD00BFBC
:1011D000C800002008B503F0CDF903F0F9F903F0D9
:1011E00025FA03F051FA044A138801331380034BA4
:1011F00000221A6008BD00BFB4000020B00000202B
:1012000008B504F0A3FB01F073FD002000F0A0FD81
:1012100001460E2000F0B2FD002000F099FD10B153
:10122000084B00221A80074BB3F90010064B83FBD2
:101230000123C917C1EB630109B20F2000F09EFD25
:1012400008BD00BFB40000206766666610B504469E
:101250008188006804F03FF9003818BF0120A379A5
:10126000181A18BF012010BDFEE7000010B582B0AB
:10127000002000F06DFD8DF80000184BB3F9003030
:10128000174A82FB0312DB17C3EB620343F3072207
:101290008DF801208DF80230012000F059FD8DF805
:1012A0000300022000F054FD8DF80400032000F03C
:1012B0004FFD8DF80500042000F04AFD8DF8060072
:1012C00000238DF80730074B186803685C68082313
:1012D0006A4640F22271A04702B010BDB40000205F
:1012E00067666666C800002038B54B4B9988186859
:1012F00004F0F4F804F0FCF8484B186800F0ECFC3B
:1013000004F0E4FE464904F0E9FF01461D2000F028
:1013100043FD4448FFF79AFF434D28604348FFF7D9
:1013200095FF434C20602968102000F027FD2168BC
:10133000112000F023FD3F4B19681439A1EBC111B6
:101340003D4B83FB0123C917C1EB6311FF31FF291B
:1013500003DC7F2902DC802100E0FF21012000F076
:101360000DFD102000F0F4FC18B9112000F0F0FC85
:1013700010B30121002000F001FD304B998818685E
:1013800004F0A4F82E4B9988186804F09FF8012106
:10139000122000F0F3FC0121132000F0EFFC294B98
:1013A000186802F04DF8FFF761FF00F0C5F900F092
:1013B00051FB00F0A7FB38BD052000F0C9FC002858
:1013C000D7D0214B1B68002BD3D10021084600F059
:1013D000D5FC0F2000F0BCFC1C4B83FB0023034416
:1013E000C017C0EB6314052000F0B2FC8442D6DBCA
:1013F000124B9988186804F06BF8114B998818689B
:1014000004F066F80021122000F0B8FC002113203F
:1014100000F0B4FCC3E700BF2C010020CC0000208A
:10142000000020410C010020BC000020040100202D
:10143000B8000020AC00002067666666240100202A
:101440001C010020C4000020B0000020898888888A
:1014500040F20453984248DC10B50C46B0F5A06F3A
:1014600007DDA0F20150032811D8DFE800F01115C4
:101470001A1F40F2033398421DD040F201439842B4
:1014800026D0B0F5D77F02D10A78184B1A6010BD6C
:101490000A78174B1A60FAE70978022000F06EFC10
:1014A000F5E70978032000F069FCF0E709780420EB
:1014B00000F064FCEBE70978092000F05FFC61783C
:1014C000082000F05BFCA1780A2000F057FCDEE762
:1014D00009780C2000F052FC61780B2000F04EFCE3
:1014E000A1780D2000F04AFCD1E77047B000002041
:1014F000AC00002038B504460D46062000F028FC5C
:1015000008B9002038BD29462046FFF7A1FFF8E7BB
:1015100010B5072810D004D8062816D1FFF724FEEE
:1015200013E00838C0B205280FD800F005F900F024
:1015300091FA00F0E7FA08E0044B1C68072000F07D
:1015400007FCC1B2204603F035F910BDC0000020F1
:1015500008B5024B186800F087FB08BDCC000020DE
:1015600080B5ADF5016D00F0A5F900F03AFA5B4CDD
:101570000B2221465A4801F009FB07234FF4005281
:101580002146584801F02DF8A4F5006407230422F1
:101590002146554801F025F80723082221465348E3
:1015A00001F01FF8524E072310222146304601F069
:1015B00018F80423012221464E4801F012F80423B2
:1015C000022221464C4801F00CF801F04BFA00F0E1
:1015D000B7F94FF480414FF0007003F06DFF00F059
:1015E000F7F901F057FB00F007FA0DF5FD644FF035
:1015F0008041204600F0DEFA404B1C600DF28C5515
:10160000012302223E49284601F0A0FD3D4BCDF8C2
:1016100080353D4BCDF880353C4BCDF884353C4B87
:10162000CDF888350DF5317801222946404602F083
:101630000FFC8EAF42462946384603F089F8072052
:1016400000F086FBC1B2384603F0B4F8314B1D60A0
:10165000DFF8C490C9F80080304B1F600DF5B06111
:10166000284601F073FE01230193009300232C4AC6
:101670002C4903A800F02CFCD9F800202A4B1A6052
:101680000A222A49204600F0B9FA64222849204655
:1016900000F0B4FAC8222749204600F0AFFA04212E
:1016A0001C2000F06BFB1E20FFF732FFB188306872
:1016B00003F00CFF00F040F8FFF756FD04E00DF1D9
:1016C0000B018FA802F0DEFC00238DF80B3003A87D
:1016D00000F0E4FD939B002BF6D1F0E700100140F1
:1016E000340100202C010020240100201C010020D6
:1016F000140100200C01002004010020CC00002077
:10170000006400406864000878640008F51400086C
:1017100069110008C8000020C4000020C00000209B
:101720006C6F0008004800406401002001120008AE
:10173000E9120008D511000808B5082000F008FBE0
:101740000138042836D8DFE800F003151D252D00E8
:10175000514B47221A80514B42F210721A800B20D3
:1017600000F0F6FA0138042866D8DFE800F02B45CF
:101770004D555D00484B3F221A80484B40F6CA0247
:101780001A80ECE7444B1F221A80444B40F6CA02F1
:101790001A80E4E7404B09221A80404B4FF4347220
:1017A0001A80DCE73C4B00221A803C4B4FF4347229
:1017B0001A80D4E7384B3F221A80384B40F6CA02D1
:1017C0001A80CCE7364B47221A80364B42F2107211
:1017D0001A800021192000F0D1FA092000F0B8FA8F
:1017E000002831D100211B2000F0C8FA0C2000F0A5
:1017F000AFFA00283CD108BD294B3F221A80294B63
:1018000040F6CA021A80E4E7254B1F221A80254BB6
:1018100040F6CA021A80DCE7214B09221A80214BCC
:101820004FF434721A80D4E71D4B00221A801D4BEE
:101830004FF434721A80CCE7194B3F221A80194BAF
:1018400040F6CA021A80C4E70A2000F081FAC0F10B
:101850006400124B198800FB01F1134B1960134A05
:10186000A2FB012149091960192000F087FAB9E7A4
:101870000D2000F06DFAC0F164000A4B198800FBDE
:1018800001F10B4B1960094AA2FB012149091960BA
:101890001B2000F073FAAEE7DE000020DC00002021
:1018A000D6000020D4000020D80000201F85EB5176
:1018B000D000002008B5204803F068FF4FF0E02377
:1018C0001E4AC3F80C2D40F2023003F0BDFF40F277
:1018D000033003F0B9FF4FF4417003F0B5FF40F25D
:1018E000053003F0B1FF40F2923003F0ADFF4FF44A
:1018F000607003F0A9FF40F2813003F0A5FF40F2D1
:10190000823003F0A1FF4FF4207003F09DFF40F2FE
:10191000093003F099FF40F2862003F095FF4FF461
:10192000407003F091FF40F2993003F08DFF4FF4C7
:10193000437003F089FF08BD307100080003FA0509
:1019400030B597B003F050FC00F5FF3505F2FD15FA
:10195000AD021422002101A800F03DFE1A4B0193B4
:101960004FF40053ADF8083001238DF80A308DF89C
:101970000B30164A03920422ADF810208DF8123075
:1019800000238DF8133003F013FC142101A803F099
:101990001DFC15902B6D834201D117B030BD03F0B3
:1019A00035FD284603F0EEFC002407E001AB53F8B8
:1019B000241005EB840003F043FD0134142CF5D909
:1019C00003F030FDE9E700BF00100140000C0140CA
:1019D00008B51C2004F09CFAE0211C2004F0A4FAB5
:1019E00008BD08B54FF41C71032003F0E7FF002089
:1019F00003F0B6FF08BD000010B582B0144CA02360
:101A000002220321204603F027FD4023012200216A
:101A1000204603F021FD04F52054204603F0E8FFA2
:101A200000220192009201232821204604F01AF896
:101A30000121204604F00EF8204603F0FDFF204669
:101A400004F003F8204603F0EBFF02B010BD00BF26
:101A50000008014010B5012302221146244803F07A
:101A6000FBFC244C204604F037F80021204604F00B
:101A70001FF8204604F017F806220421204604F03F
:101A800034F80421204604F0F6F80421204604F03E
:101A90000CF90421204604F02DF9174B1988204633
:101AA00004F021F800220421204604F048F9002126
:101AB000182000F063F9092000F04AF968B90D4CCC
:101AC0000121204604F04BF90C4B1988204604F004
:101AD00008F8204603F0FBFF10BD094B1A680421EB
:101AE000204604F02CF90121182000F047F9E6E720
:101AF000000C014000040040DC000020DE0000205B
:101B0000D800002010B5402302221146244803F0DB
:101B1000A3FC244C204603F0DFFF0021204603F005
:101B2000C7FF204603F0BFFF06220021204603F036
:101B3000DCFF0021204604F09EF80021204604F03E
:101B4000B4F80021204604F0D5F8174B1988204638
:101B500003F0C9FF00221146204604F0F0F80021EE
:101B60001A2000F00BF90C2000F0F2F868B90D4CC7
:101B70000121204604F0F3F80C4B1988204603F0AD
:101B8000B0FF204603F0A3FF10BD094B1A680021E7
:101B9000204604F0D4F801211A2000F0EFF8E6E71F
:101BA000000C014000080040D4000020D6000020B6
:101BB000D000002038B505460C460162084603F007
:101BC00072FF204603F07EFF0A4B1968C1F31A1119
:101BD000094BA3FB0131C9090139204603F081FFFC
:101BE0004FF6FF71204603F07EFF00236B6228460C
:101BF00038BD00BFA8000020C55A7C0AF8B5436A6A
:101C0000032B00DDF8BD04460E461546006A03F0BE
:101C100063FF636A134F0122F95C206A03F065FFDA
:101C2000636A0022F95C206A04F089F8636A44F868
:101C3000236003F1080105EB850202EB82029200AA
:101C400024F8112002219940206A03F01FFF00218F
:101C5000206A04F08AF8206A03F039FF636A0133CE
:101C60006362CFE780640008F8B50546002424E0ED
:101C70000226A6403146286A03F00CFF10B3286AFA
:101C800004F071F887B22B6A03EB84035A6B04F1FA
:101C9000080135F811100A445A6355F82430984762
:101CA000286A04F060F8C01B04F10C0325F8130047
:101CB0003146286A03F0F4FE0134032C0BDC6B6A16
:101CC000A342D5DC6B6AA342F6DC0221A140286A5C
:101CD00003F0E6FEF0E7F8BD0146002210460FE0F3
:101CE00002F10C0331F813304FF47A7C0CFB03F350
:101CF00002F1080C31F81CC093FBFCF318440132CC
:101D00004B6A9342ECDC704708B5C0EBC0020B4B4A
:101D100003EB8203DB688B420EDC084B03EB820390
:101D20001B698B4201DAFF2007E0054B43F82010C6
:101D3000FFF7EEFB002000E0FF2008BD9C6B0008D1
:101D400000000020014B53F82000704700000020E5
:101D5000024B53F820004011704700BF00000020E4
:101D600008B5054B53F8200004F0B0F94FF074515A
:101D700004F000FA08BD00BF000000204901024B3A
:101D800043F82010704700BF00000020014B43F8CB
:101D9000201070470000002010B5044608464FF0A0
:101DA000844104F0E7F904F035FB024B43F82400CA
:101DB00010BD00BF0000002070B506460024074D8E
:101DC0001D2C09DC3146686800F066FB10B1013457
:101DD0001C35F5E7E0B270BD1F20FCE79C6B0008E6
:101DE0000023064A1D2B07DC118B814202D00133F0
:101DF0001C32F7E7D8B270471F2070479C6B000871
:101E0000C0EBC000014B03EB800070479C6B0008E7
:101E100038B50024074D01E001341C351D2C07DCCA
:101E20002B8B002BF8D06969E0B2FFF7AFFFF3E727
:101E300038BD00BF9C6B0008014B1954704700BFB0
:101E4000E0000020024A135C0B431354704700BFAC
:101E5000E0000020024A135C23EA01031354704798
:101E6000E0000020014B185C704700BFE00000203C
:101E7000C0EBC000024B03EB8003987E704700BFAD
:101E80009C6B000808B52021806803F0CCFF08BDDA
:101E900008B5806803F0BFFF08BD10B5044643686D
:101EA000597A586803F004FA636804F12A02597AEF
:101EB000586803F00FFA63688022597A586803F073
:101EC00019FA6368597A586803F0E9F910BD0000FF
:101ED00070B504460D465349016053490160856061
:101EE00003730261012101754175817500228261D0
:101EF000C26180F82020426280F828109DF81010FE
:101F000080F829109DF8141080F82A124749416082
:101F1000032A07D861680868A84203D01C316160B1
:101F20000132F5E7424A1460002B74D062685069B0
:101F3000002B73D063681B8B0222032103F08CFA01
:101F40004FF4E131284603F013FF0821284603F03F
:101F500023FF4FF40051284603F027FF0C212846A9
:101F600003F02FFF0021284603F025FF002128461B
:101F700003F02DFF284603F040FF284603F042FF00
:101F80006368197A586803F035F96368197A5868F4
:101F900003F07CF963682E1D3246197A586803F005
:101FA00090F963680022197A586803F04DF9636864
:101FB0000022197A586803F03BF96368197A586867
:101FC00003F04EF96368597A586803F013F96368AF
:101FD0003246597A586803F074F963680022597AD6
:101FE000586803F031F963680022597A586803F0A1
:101FF0001FF96368597A586803F032F96368597AAF
:10200000586803F04CF92046FFF747FF284603F0D5
:10201000E4FE204670BD6268D06889E763681B8A69
:102020008AE700BFEC6E0008F86E0008FC6E00083E
:102030000001002038B50D460469437D3BB121689D
:1020400039B1284600F028FA18B10834F7E700241F
:1020500001E023680BB1204638BD1C46FBE738B5CC
:1020600004460D4601E0002373B163680222197A29
:10207000586803F0D4F80028F5D194F828300BB153
:102080000023F1E70123EFE76368197A586803F04A
:102090000FF96368AAB2197A586803F02BF96368DC
:1020A00094F82020D201A83222440232197A5868CA
:1020B00003F010F963680222197A586803F0AAF84D
:1020C0006368197A586803F0EAF894F82030B3FA94
:1020D00083F35B0984F82030002384F8283038BD6E
:1020E00010B50446837D73B10A2910D0436A7F2B53
:1020F0000DD090F8202000EBC2121A4482F8AA10EA
:102100000133436210BD806803F06CFEFAE794F877
:102110002030626A04EBC313134483F8AA10511CE5
:102120002046FFF79CFF00236362EBE710B50C46E7
:10213000802A28BF802211464FF0000C0AE090F858
:10214000203014F80CE000EBC313634483F8AAE0DA
:102150000CF1010C8C45F2D3FFF781FF10BD38B5AF
:1021600005460C46084600F0AEF9024621462846D0
:10217000FFF7DCFF38BD000010B50446084600F04C
:10218000F5F900F0DAF9237D83420DD00023637561
:10219000237B0BB3626850690BB363681B8B01220E
:1021A000002103F059F910BD01236375237B6BB146
:1021B000626850696BB163681B8B0222032103F0D4
:1021C0004BF908492046FFF7CAFFECE76268D06880
:1021D000F0E763681B8AF0E76268D068DCE7636851
:1021E0001B8ADCE78068000830B585B004460846E5
:1021F00000F0BCF90378302B11D0322B0DD04FF406
:102200006125637D73B92946A06803F0B1FD002103
:10221000A06803F0CAFD05B030BD0D4DF1E74FF4E5
:10222000E135EEE70A22294601A800F05BF90949E9
:102230002046FFF794FF08492046FFF790FF01A9C9
:102240002046FFF78CFF05492046FFF788FFDAE7B5
:1022500010552200246600082C660008446B000814
:1022600010B50446084600F081F9037823B1303BED
:1022700018BF012384F8293094F8293023B1054987
:102280002046FFF76CFF10BD03492046FFF767FFAC
:10229000F9E700BF3C66000848660008F8B5044648
:1022A0004368597A586803F01EF80646C0F1800565
:1022B00058B92046FFF7F1FD07E05A1CE2612344BC
:1022C00093F82A10A06803F08DFD94F8293013B11B
:1022D000E369AB42F1DB0821A06803F0A4FDE0B99B
:1022E000002D28DDC6F17F06264496F82A300A2BF9
:1022F00017D00D2B15D094F82A30212B1BD1A369B0
:10230000CBB12046FFF7C9FD0023E361A3695B68F9
:1023100004F5D571204698470DE0A06803F07BFDD9
:10232000DEE76368597A586802F0C2FF012D03DCCA
:102330002046FFF7B2FDF8BD6319002283F82A207A
:10234000E26104F12A072021384600F0C3F806466E
:10235000037823BB0A21384600F0BCF80646002368
:1023600084F8AA31337803B300233370A3612A4978
:10237000384600F091F80646E8B904F5D5712046D4
:10238000FFF7FAFEA369002B3CD0A06803F047FDDD
:10239000A3695B6804F5D57120469847C8E7411CDE
:1023A00004F5D57000F086F8DCE70D21384600F022
:1023B00091F80646D8E71949384600F06DF8064608
:1023C00068B994F82A322BB104F5D5712046FFF78D
:1023D0000BFFD7E712492046FFF7C1FED2E71149AC
:1023E000384600F059F8064628B904F5D57120465C
:1023F000FFF736FFC6E739462046FFF71BFEA06110
:102400002E46BFE7012E93DD637D002B90D0064959
:102410002046FFF7A4FE8BE75466000860660008BC
:102420006C660008886600089066000808B5044BD2
:102430001B681A681268C1B21846904708BD00BFF1
:1024400000010020704708B500F08CFC08BD0000BA
:1024500000B583B00649D1F8F027D1F8EC37D1F8B0
:10246000E8170091034900F0E7FA03B05DF804FBB8
:1024700000F0FF1FAC66000810B50446FFF7C8FC6B
:102480000249204600F0D8FA10BD00BFC06600081F
:1024900008B501F0F7FD08BD431E013913F8010F1F
:1024A00011F8012F10B10AB19042F7D0801A18BF6D
:1024B00001207047013911F8013F0BB903707047D3
:1024C00000F8013BF7E7034600201A5C02B97047A9
:1024D0000130FAE70346184613F8012B0AB18A4285
:1024E000F9D17047002970B518DA2D23012400F8BE
:1024F000013B4942034691FBF2F602FB16113031D3
:102500001970311E1D4603F10103F4DC00221A701C
:10251000024695420AD8241A181904E004D130233F
:1025200041700370012070BD0024E3E711782E781C
:1025300002F8016B05F80119EBE730B503782D2B94
:1025400011D14FF0FF34013000210A25431E01E074
:1025500005FB012113F8012F303AD0B20928F7D931
:1025600004FB01F030BD0124EEE7000010B5134C70
:10257000014610F8012BA2F10A03DBB2162B19D881
:1025800024FA03F3DA07F3D40846FFF79CFF013877
:102590000844814204460AD2237801380A3BDBB260
:1025A000162B04D8054A22FA03F3DB07F1D40023E3
:1025B000637001E0002AE7D1084610BD0900400021
:1025C000002310B5934200D110BD51F8234040F8CC
:1025D00023400133F6E7013A00D2704740F8041B6C
:1025E000F9E72DE9F0410D4616461F46016082804D
:1025F0000024847103F1FF3CBCF1080F06D8DFE82A
:102600000CF009320F15191F23282D000024022772
:10261000A0462BE00123837100240227A04625E079
:102620000124847102274FF000081FE000240127D5
:10263000A0461BE00123837100241F46A04615E03D
:1026400000242746A04611E0002427464FF0030847
:102650000CE0012427464FF0030807E0002402277E
:102660004FF0030802E001244FF000083CB9334664
:102670003A464146284602F0EFFEBDE8F081314679
:10268000284602F023FFF2E770B50C1EACBF012311
:102690004FF0FF335C430133064608BF2D234FF054
:1026A000640208BF06F8013B611104F01F040546EF
:1026B000544330460A22FFF715FF2E226411092CDD
:1026C0003254D8BF302206EB0003D8BF5A702146DF
:1026D0004FF00A02CCBF581C981CFFF703FF284696
:1026E00070BDF0B503782D2B17D14FF0FF360130B8
:1026F00000244FF00A0C02E018460CFB0454034679
:1027000013F8012BA2F13005EFB2092FF4D9AAB9C1
:102710008C40144406FB04F0F0BD0126E8E78B4032
:1027200003EB650393FBF5F30CFB05F51A4410F876
:10273000013F303BDFB2092FF1D9E9E70A2500223A
:10274000AC46F4E72DE9F04105460F46161E02DDC2
:102750000A46002108E04FF0200813F0010414D0CD
:10276000002422E00131013210780028FAD1B14270
:1027700006DA761A13F0020F04D14FF02008ECE7C6
:102780000026F7E74FF03008E7E7002E0DDD2B6855
:102790001B684146284698470134013EF5E72B68FF
:1027A0001B68284698470134013739780029F6D14B
:1027B00006E02B681B684146284698470134013ED5
:1027C000002EF6DC2046BDE8F0812DE9F04184B012
:1027D0000746DDF828800C9859B11E460C4613B107
:1027E0000A2A13D0002600238DF80D300DF10D05B7
:1027F00018E030238DF8003000238DF801300B9B5A
:10280000424669463846FFF79DFF32E0002901DB6A
:102810000026E8E74C420126E5E7303105F8011DC6
:10282000B4FBF2F44CB1B4FBF2F102FB1141092903
:10283000F3DDA0F13A031944EFE79EB1B8F1000FC0
:102840000BD00B9B13F0020F07D03B681B682D21A8
:102850003846984708F1FF3804E02D2305F8013C7D
:10286000013D00260B9B424629463846FFF76AFF8A
:10287000304404B0BDE8F08108B50846FFF7D6FD46
:1028800008BD70B584B0044615461E466846FFF77D
:10289000FBFE33462A4669462046FFF753FF04B045
:1028A00070BD000070B588B006460C460592002544
:1028B00099E0A21C0123A3E0013443F00203227833
:1028C000302AF9D00022217839291CD9782900F240
:1028D00089805829C0F086805839202900F28280EA
:1028E000DFE801F043808080808080808080806A83
:1028F0002580618080808080808080808080801AB8
:1029000080528080340030296CD302EB820230394F
:1029100001EB42020134D6E70599081D05900968CC
:1029200001B93A493046FFF70DFF05445AE00599D1
:10293000081D05900968612002900193009201230F
:102940000A223046FFF741FF05444BE00599081D78
:1029500005900968612002900193009200231022E3
:102960003046FFF732FF05443CE00599081D05900D
:102970000968412002900193009200231022304602
:10298000FFF723FF05442DE00599081D0590096810
:10299000612002900193009200230A223046FFF743
:1029A00014FF05441EE00599081D0590096830468E
:1029B000FFF767FF054415E00599081D05900968B4
:1029C0008DF81C1000218DF81D1007A93046FFF767
:1029D000B9FE054406E0144633681B68217830468A
:1029E000984701350134237863B1252BF4D1621C5B
:1029F00063783BB1252BEED02D2B3FF45AAF00234B
:102A000014465CE7284608B070BD00BF3467000874
:102A10000FB400B583B004AA52F8041B054B019310
:102A2000009201A8FFF73EFF03B05DF804EB04B08D
:102A3000704700BFE46F00080EB400B582B003AA6F
:102A400052F8041B0192FFF72DFF02B05DF804EB72
:102A500003B07047014B024A1A60704734010020EE
:102A60003801002030B583B0314B93E8030002AB4E
:102A700003E903000025002D2CDD2E4C2E4A0121F8
:102A8000204602F01EFC2D4A0121204602F022FCC5
:102A90004FF480720121204602F0D6FB4FF4806291
:102AA0000121204602F0C4FB0C220121204602F045
:102AB00021FC0121204602F0D3FB0121204602F037
:102AC000D8FB0121204602F0EAFB1D4802F068F91C
:102AD00003B030BD02AB03EB850353F8084C20462E
:102AE00002F01CF9204602F01EF9204602F025F9FA
:102AF000204602F01DF90121204602F0FAF8204696
:102B000002F0BEF8204602F0D7F8204602F0E7F8BF
:102B10000C4A2A440121204602F014F9204602F012
:102B200049F94FF46021204602F0BCF80135A2E7D4
:102B3000E86F0008000002404C24014038010020EA
:102B4000002401405001002008B50F4B98420BD0E3
:102B500003F58063984211D0A3F50063984205D134
:102B6000072903DCC8B204E0012903DD02F090F874
:102B7000102008BDC9B20831C8B2FAE70529F5DC52
:102B8000C9B20A31C8B2F4E7000C014070B504467E
:102B90000D461646012393409BB20022114628465B
:102BA00002F05AFC2468054BE41A641031462846AA
:102BB000FFF7CAFFA4B2024B185570BD38010020C0
:102BC0005001002008B5FFF745FF08BD08B502F029
:102BD0000BFB00F5FF3000F2FF10800208BD2DE96D
:102BE000F043ADF2044DFFF7F1FF06460246002325
:102BF0004FF0FF3403E052F8041B0C400133FF2B6D
:102C0000F9DD02F0D5FA4FF480724FF0FF316846DB
:102C1000FFF7E1FC002500E001351D2D1AD8EFB2C9
:102C20003846FFF725F90028F6D13846FFF7E8F8CF
:102C300080463846FFF716F90DEBC50989F8030001
:102C4000B8F818302DF835303846FFF77BF8C9F85A
:102C50000400E1E7FE21684602F0B8FAFE9002F0B7
:102C6000D5FBB4F1FF3F01D100240AE0304602F069
:102C700089FBF9E75DF8241006EB840002F0E0FB25
:102C80000134FF2CF6D902F0CDFBFE980DF2044D75
:102C9000BDE8F083F8B5FFF799FF064602F088FA21
:102CA000FE21304602F092FAD6F8F833834201D181
:102CB000002503E04FF0FF3019E001357E2D15D8D7
:102CC00036F83500FFF78CF804461F28F5D0FFF7DB
:102CD000CFF80028F1D106EBC50779682046FFF749
:102CE00055F8F9782046FFF7A7F8E6E70020F8BD89
:102CF000014B1860704700BF5401002003280AD818
:102D0000064B03EBC0035B680BB900207047034B15
:102D100013F8300070470020704700BF7800002093
:102D2000032801D900207047024B03EBC003586809
:102D3000704700BF7800002008B5074B03EBC102C5
:102D400092F804C053F83130044A52F82C2001465E
:102D50000348FFF75DFE08BDFC6F0008F06F000838
:102D60003C67000810B50C4B5B680BB1002409E010
:102D70000A48FFF74DFE10BD074B13F83410FFF75C
:102D8000DBFF0134032CF6D8034B03EBC403586874
:102D90000028F1D1EFE700BF780000204C67000861
:102DA00010B58AB00F4B01EB410203EB820453F8DC
:102DB0002220646801EB410103EB81039B68D0F89A
:102DC00058020021089107910693059404920391FB
:102DD0000291019100910B46012201F0FDFF0AB022
:102DE00010BD00BF28700008F0B583B004460D4642
:102DF00016461F4672B60121D0F8580202F0FFF8BD
:102E0000019600970023B5F5006F34BF0022012220
:102E10002946D4F8580202F0F7F8002806DBD4F867
:102E20005432002B18DC62B603B0F0BDD4F8543233
:102E3000132BF4DC03F1110204EB021255609760CE
:102E4000316804EB0312C2F81C117168C2F820113A
:102E50000133C4F85432E2E70121D4F8580202F0F9
:102E6000CAF8E0E7012801DD00207047014B53F864
:102E7000200070475801002030B58BB004460D4645
:102E80000AE09DF8213006AA0999204600F0A6FA2A
:102E900002F05CFDC4F8F8000023059306AB049330
:102EA0000DF12103039308AB02930DF1220301936B
:102EB0000DF12303009309AB0122E9B2D4F85802C3
:102EC00002F019F90028DCD10BB030BD30B583B069
:102ED000044600F58A7504E0D4F85432013BC4F886
:102EE0005432D4F85432002B17DD03F18053013BE8
:102EF0001A0105EB0313A95803F1080201921B798B
:102F000000930023B1F5006F34BF00220122D4F8F2
:102F1000580202F079F80028DEDAD4F854320BB106
:102F200003B030BD0121D4F8580202F068F8F7E789
:102F3000F0B585B00E4615461C461068B3F800C0C3
:102F40005A889B88E7885B019BB2520192B24FEA94
:102F50004C1C1FFA8CF14FF0010CCDF808C000EAB0
:102F60000C0CCDF804C07F01BFB2009702F026F828
:102F7000002333602A6801322A60E380A3806380E3
:102F8000238005B0F0BDF0B585B00F4615461C4650
:102F90001068B3F800C05A889B88E6885B019BB232
:102FA000520192B24FEA4C1C1FFA8CF14FF0010C07
:102FB000CDF808C000EA0C0CCDF804C07601B6B21A
:102FC000009601F0EBFF00233B602A6801322A6083
:102FD000A380238040F2FF73E380638005B0F0BDDF
:102FE00070B582B00E4615461C4610681968C900B7
:102FF0005A68D20001230093034042F0040241F0DA
:10300000040101F0EBFF002333602A6801322A60DB
:103010006360236002B070BD30B58BB005460023FD
:1030200008930993474906AA03C982E80300049359
:103030000593039302930193D5F85822424B9A4289
:103040000AD0A3F58063D3F8003AC3F305230093B5
:103050000024C2F81C4221E00023F8E704F11E021C
:1030600005EB8202516871B3029A501C02900DF177
:10307000280C0CEB420C2CF8103C023202920AABEA
:1030800003EB400020F8101C039B042B24D0029B70
:10309000022B28D0019B022B2CD00134D5F8F43020
:1030A000A3422EDD05EB84035B68B3F5006FD5D337
:1030B000019A23F060430AA901EB820141F8183C10
:1030C00001320192E0E7039A0AA901EB420121F8DB
:1030D000083C01320392D7E708AB6A4603A92846A9
:1030E000FFF726FFD3E706AB6A4602A92846FFF79B
:1030F0004AFFCFE704AB6A4601A92846FFF770FFF5
:10310000CBE7039B002B07DC029B002B0BDC019B16
:10311000002B0FDC0BB030BD08AB6A4603A9284674
:10312000FFF706FFF0E706AB6A4601A92846FFF75E
:103130002AFFECE704AB6A4601A92846FFF750FFD7
:10314000E8E700BF6470000800640040F8B504467A
:103150000D4616461F4600F0E3F8544B236000234B
:10316000C4F85432C4F85852514B9D422FD003F545
:1031700080639D4258D1002F00F082804D4D202366
:1031800002220021284602F067F92021284602F099
:103190009DF9402302220321284602F05DF94020D8
:1031A00002F0B6FEF021402002F0BEFE412002F007
:1031B000AFFEF021412002F0B7FE3F2002F0A8FE52
:1031C000F0213F2002F0B0FE3B4B5C602CE0002F72
:1031D00041D0384D4FF4807302220021284602F07E
:1031E0003BF94FF48071284602F070F94FF40073F8
:1031F00002220321284602F02FF9142002F088FE53
:10320000F021142002F090FE152002F081FEF02142
:10321000152002F089FE132002F07AFEF02113201F
:1032200002F082FE244B1C60D4F8580201F0C8FD65
:1032300031462046FFF7B4FD2046FFF7EDFE0221A0
:10324000D4F8580201F0D7FE1021D4F8580201F04A
:10325000D2FE2046F8BD194D4FF400630222002132
:10326000284602F0F9F84FF40061284602F02EF9E2
:103270004FF4805302220321284602F0EDF8BCE708
:103280000C4D4FF4805302220021284602F0E4F84E
:103290004FF48051284602F019F94FF400530222EE
:1032A0000321284602F0D8F879E700BF1C70000817
:1032B00000640040000C014058010020000801405B
:1032C00008B50020FFF7CEFD0021FFF7D5FD08BDB2
:1032D00008B50020FFF7C6FD0121FFF7CDFD08BDB1
:1032E00008B50020FFF7BEFDFFF7F0FD08BD08B5EB
:1032F0000120FFF7B7FD0021FFF7BEFD08BD08B5AF
:103300000120FFF7AFFD0121FFF7B6FD08BD08B5AD
:103310000120FFF7A7FDFFF7D9FD08BD70477047F3
:10332000084B03600023C0F8F430C0F8FC3005E01F
:1033300003F14002044940F822100133042BF7DD69
:10334000704700BF7470000898000020D0F8FC306F
:10335000042B01DD0020704703F1400240F82210E9
:103360000133C0F8FC300120704738B5D0F8F45074
:103370001D2D0BDD002038BD01339D4208DD00EB23
:10338000830464688C42F7D10020F4E70023F4E75B
:1033900000EB8503596005F11E0300EB83035A60BF
:1033A0000135C0F8F45003689B6898470120E2E7B4
:1033B00038B505460024C0F8F44003689B68984778
:1033C00007E004F1400355F8230003685B68984761
:1033D0000134D5F8FC30A342F3DC38BD2DE9F843C5
:1033E0000546894690461F4600240AE004F1400342
:1033F00055F8230003681E683B4642464946B047DD
:103400000134D5F8FC00A042F0DCBDE8F88370B5CB
:10341000054600F1300634460BE034F8043BC3F3B4
:10342000C02123F40063002203EB41716868FFF7B9
:103430009CFFA31B242B02DCA378322BEDD170BDA3
:103440002DE9F04182B0054600F108073E46F31B26
:10345000242B00F39380B378322B00F08F8000236D
:1034600000930193B37803EB4304A40058342C4435
:103470001AE0C0F307231B0443EA0063C0F30742CA
:1034800043EA022343EA1063E2791F2A3DD8C2F1DE
:103490001F0223FA02F2009B13430093647A04EBA9
:1034A0004404A40058342C44637AFF2B5DD0354B80
:1034B0001B78002B62D12079FEF752FC0146206870
:1034C00002F058FE804694F9060002F0FFFD4146E6
:1034D00002F048FD02F09EFF94F908C08CEAEC71FE
:1034E000A1EBEC71C9B24FF0FF328A4020EA020032
:1034F000BCF1000FBDDBE2791F2A20D9203A00FA87
:1035000002F2019B13430193C8E79444BCF11E0FE0
:1035100007DDC2F13F0223FA02F2019B134301933C
:10352000BCE7A2F11F0003FA00F0009901430091EB
:10353000C2F13F02D340019A1A430192AEE702EB77
:103540000C03202B05DC00FA02F2009B13430093CE
:10355000A4E700FA02F1009B0B430093C2F12002A2
:10356000D040019B0343019398E7686803685C6857
:1035700008236A4636F8041BA04768E702B0BDE896
:10358000F08100BF6001002010B501B302F10C0E04
:1035900000EB8E0E0A2A45D89EF80210322943D03D
:1035A00001EB410C4FEA8C0C0CF1580C84440024C4
:1035B0009CF80910FF2933D073B1013BDBB201EB5A
:1035C000410189005831644600EB010CF0E702F13B
:1035D000020E00EB8E0EDDE72CB16172FF238CF83A
:1035E000093001201FE0322904D08EF80210F5E7DF
:1035F0000133DBB29918092904DC0EEB83018978C9
:103600003229F5D1013BDBB20EEB830291788EF8C3
:1036100002103EF82330AEF8003032239370DDE71D
:10362000002000E0002010BD0020FCE7F8B50C46AB
:1036300000F1080600231A461F4619463FBB3546CF
:103640000022A5EB060CBCF1240F27DC95F802C084
:10365000BCF1320F22D00CEB4C0E4FEA8E0E0EF165
:10366000580E8644002309E00133DBB20CEB4C0C0E
:103670004FEA8C0C0CF1580C00EB0C0E9EF809C0B4
:10368000BCF1FF0F06D0BEF804E0A645ECD157B15F
:103690000020F8BD0132D2B20435D2E700F1300685
:1036A0000F460121CAE7FFF76FFFF2E7F0B5089F69
:1036B00000243C7000F10806002C42D13546AC1BBA
:1036C000242C38DCAC78322C35D004EB440E4FEA95
:1036D0008E0E0EF1580E864407E00CEB4C0C4FEAB0
:1036E0008C0C0CF1580C00EB0C0E9EF809C0BCF1D0
:1036F000FF0F1ED0BEF804408C42EED12988C1F3E2
:10370000C020116021F40061116041EA4071116034
:103710009EF807201A709EF90820059B1A70DEF8A3
:103720000020069B1A609EF90620079B1A70012054
:10373000F0BD0435C3E73C7801253D7000F130064B
:10374000BAE70020F4E710B48446019CD9B102F135
:103750000C0100EB81010A2A27D88A78322A26D068
:1037600002EB4202920058320CEB0200427AFF2A2E
:1037700018D063B1013BDBB202EB42029200583237
:103780000CEB0200F2E7911C00EB8101E3E70B88F0
:10379000C3F3C022236023F40063236043EA42732F
:1037A000236000E0002010BC70470020FBE70020F1
:1037B000F9E72DE9F04385B00646884600F108098F
:1037C00000273B462CE02B88C3F3C02023F4006184
:1037D000029794F9063001932368009394F9083016
:1037E000E27941EA40712079C047647A04EB4404ED
:1037F000A40058343444637AFF2BE4D10435A5EB9C
:103800000903242B08DCAB78322B05D003EB4304EF
:10381000A40058343444EEE706F130093B46012752
:103820000BB94D46EBE705B0BDE8F083002306E099
:1038300001EB83024FF0320C82F802C00133092BF6
:10384000F6DD002307E003EB430200EB8202FF21D9
:1038500082F861100133322BF5DD704710B5044654
:1038600000F10801FFF7E2FF04F130012046FFF705
:10387000DDFF6068FFF79CFD10BD2DE9F041884633
:1038800015461F46002426460AE0286801F098FCE9
:10389000064655F8041B08EB840001F0D1FD013405
:1038A000BC42F2DB3046BDE8F081084600E004305F
:1038B000431A242B0ADC8378322B05D0038853402B
:1038C00033F40063F3D102E000207047002070471A
:1038D0004B4B1B7803B170472DE9F0410546164666
:1038E0000A4600F13001FFF7E0FF002800F0858074
:1038F000837803EB4304A40058342C4442E01F2B8C
:1039000053D83068C0F30722120442EA0062C0F3C1
:10391000074742EA072242EA1062C3F11F03DBB203
:1039200001208840013822FA03F3184002F0CAFB54
:10393000074694F9060002F0C9FB394602F012FB73
:103940000146206802F016FC07462079FEF790FA3F
:1039500020B12079FEF78CFA012849D1B4F804800F
:103960004FF08441384602F005FC02F053FD014659
:103970005FFA88F0FEF7C8F9647A04EB4404A40007
:1039800058342C44637AFF2B37D0E37994F908201C
:1039900082EAE271A1EBE271C9B2002AAFDB1F2B10
:1039A00018D97268203BDBB2BAE71A441F2A03DD3C
:1039B0007068203BDBB2A5E75B1ADBB20133DBB2F8
:1039C0003068D8407268C3F120039A4010434B1E00
:1039D000DBB297E71A44202A01DC3268A0E732689C
:1039E000DA407068C3F1200398400243002397E750
:1039F00039462079FEF7D0F9BEE7BDE8F08100BF77
:103A0000600100202DE9F8439DF820809DF9246095
:103A1000002E79D004460D461746994686EAE6738D
:103A2000A3EBE673DBB2202B71D8002E0CDD08EB84
:103A30000603402B6EDC4A4629462046FFF735FF39
:103A4000844668B100221DE0B8F13F0F65D84FFAF7
:103A500088F33344B3F1FF3FEDDA6FF0010051E03A
:103A60000021092907DC05EB81039A78322A01D06D
:103A70000131F6E79C46BCF1000F51D0ACF8009044
:103A8000E0E70132312A07DC02EB420304EB830357
:103A900093F86130FF2BF4D1322A44D09CF80230E5
:103AA00000210AE003EB430189005831214403EB74
:103AB000430304EB830393F86130322BF2D102EB22
:103AC000420304EB8304A4F85C700A9BA3659DF990
:103AD0002C3084F85E3084F85F8084F86060322394
:103AE00084F8613019B14A722B46002004E08CF84A
:103AF0000220F9E7013004335A1B242A02DC9A78A9
:103B0000322AF7D1BDE8F8836FF00200FAE76FF0D0
:103B10000200F7E76FF00100F4E76FF00100F1E752
:103B20006FF00300EEE76FF00400EBE7B2F5006F13
:103B300012D210B584B09DF920400394079C0294E2
:103B40009DF918400194009313460A4600F10801BC
:103B5000FFF758FF04B010BD4FF0FF30704770B54D
:103B600084B005461446C2F3407022F00052B2F50C
:103B7000006F19D29DF928600396099E02969DF95F
:103B800020600196009342EAC0230A4605F1300105
:103B90002846FFF737FF0646002221466868FFF7F0
:103BA000E4FB304604B070BD4FF0FF36F9E72DE975
:103BB000F04F89B08346059206938A46079131E01B
:103BC000B4F9020002F082FA002303930290CDF8C8
:103BD000048000953B46049A05993046FFF712FF92
:103BE0000634A4EB09032A2B1ADC94F90530002BC8
:103BF00016DD2088FEF7F4F80490DBF80060BAF8D0
:103C00000070257994F90580069B002BD8D0B4F973
:103C1000020002F05BFA4FF0745102F0ABFAD3E706
:103C20000AF1320A079BAAEB0303B3F5E17F0ADC32
:103C3000BAF800104FF6FF73994204D00AF102055A
:103C40002C46A946CDE709B0BDE8F08F08B501F0D4
:103C5000CBFA00F5FF3000F5FF70800208BD70B5AB
:103C600082B005460190FFF7F1FF0446D0F8E86303
:103C700001F09EFAFA21204601F0A8FA864202D00D
:103C8000002002B070BD002305F10802214601A802
:103C9000FFF78DFF012305F1300204F5FA7101A849
:103CA000FFF785FF0120ECE7F8B505460F460E4605
:103CB0000EE02079FEF7A4F8038BA380647A04EB6E
:103CC0004404A40058342C44637AFF2BF1D1043609
:103CD000F31B242B08DCB378322B05D003EB430411
:103CE000A40058342C44EFE7F8BDF8B505460F465C
:103CF0000E460DE0A088FEF773F8A080647A04EB0E
:103D00004404A40058342C44637AFF2BF2D10436C7
:103D1000F31B242B08DCB378322B05D003EB4304D0
:103D2000A40058342C44EFE7F8BD0000F0B583B090
:103D30000546FFF78BFF064602462A4B0121197004
:103D400000234FF0FF3403E052F8041B0C40013312
:103D5000FF2BF9DD01F02CFA01F058FB022001F0F5
:103D60004BFBB4F1FF3F38D105F10807394628462F
:103D7000FFF79AFF05F1300421462846FFF794FF2C
:103D80000A233A4631462846FFF777FD0A232246A2
:103D900006F128012846FFF770FD0190962305F1F2
:103DA000580206F150012846FFF767FD01900123F4
:103DB00001AA06F52D712846FFF75FFD01F032FBE1
:103DC00039462846FFF791FF21462846FFF78DFF29
:103DD000044B00221A7003B0F0BD304601F0D2FA55
:103DE000C2E700BF60010020F8B50546FFF72EFFCF
:103DF0000446D0F8B46201F0DBF9AA21204601F0B4
:103E0000E5F9864203D02846FFF729FFF8BD05F102
:103E100008070A2221463846FEF7D2FB05F1300694
:103E20000A2204F128013046FEF7CAFB962204F16B
:103E3000500105F15800FEF7C3FB39462846FFF74D
:103E400054FF31462846FFF750FF0120DEE700000F
:103E500038B50446084615460D4B23600D4B2360CC
:103E600061602146FFF772FA04F108012046FFF76E
:103E7000DDFC04F130012046FFF7D8FC25B92046CF
:103E8000FFF7C5FA204638BD2046FFF7ADFFF6E73D
:103E900068640008987000082DE9F04184B00C4671
:103EA00015461E469DF83070FDF7AAFFD0F8048035
:103EB0001449154B1868FEF7BFFDE7B11349124BC3
:103EC0001868FEF7B9FD4FF084410A9802F052F9E4
:103ED0000D4B1F689DF92C30039302F09BFA029062
:103EE000019600952346424609493846FEF7A4FD4F
:103EF00004B0BDE8F0810749034B1868FEF79CFD4C
:103F0000E1E700BFAC67000868010020B467000863
:103F1000BC670008B867000870B504460846FEF79D
:103F200025FB05462021FEF7D5FA0378A3B100232F
:103F300000F8013B0521FEF7D4FB06462846FDF7B5
:103F40003BFF1F2812D03146FDF7DEFE48B90A4973
:103F50002046FEF771FD03E008492046FEF76CFDA0
:103F600070BD07492046FEF767FDF9E72A46054977
:103F70002046FEF761FDF3E7EC670008D067000814
:103F8000F867000810680008F8B507460846FEF70D
:103F9000EDFA05460BE0FDF7D5FE02460E49384620
:103FA000FEF74AFD254605F8016B2C2E12D12C2177
:103FB0002846FEF78FFA0446067800230370284649
:103FC000FDF7FAFE1F28E6D12A4604493846FEF7D7
:103FD00033FDE7E7F8BD00BF286800083068000837
:103FE0002DE9F04107460846FEF7C0FA8046202139
:103FF000FEF770FA03789BB104460646002306F8E4
:10400000013B4046FDF7D8FE05461F2829D06378BE
:10401000212B0AD07E2B08D02F2B06D0002406E0BF
:1040200013493846FEF708FD0FE0A61C012431466F
:104030001048FEF731FA50B974B101212846FDF756
:1040400009FF0D493846FEF7F7FCBDE8F0810B4942
:104050003846FEF7F1FCF8E701212846FDF7F2FEAD
:10406000EFE7424606493846FEF7E6FCEDE700BFBB
:104070004C6800085C680008746800086468000800
:10408000106800082DE9F04F8BB007460846FEF790
:104090006DFA0378059346493846FEF7CDFC0026B5
:1040A0004FF0200822E0434A039202930190CDF89A
:1040B00000A04B46424640493846FEF7BDFC284624
:1040C000FDF7D6FE20B12846FDF7D2FE01285AD1D1
:1040D000E26823696169206802960190009137497E
:1040E0003846FEF7A9FC4FF02C0801361D2E51D89A
:1040F000F5B22846FDF784FE04462846FDF7B2FED9
:1041000010F0010F02D0059B682BEED1D4F804907B
:10411000D4F808A0B4F818B02846FDF713FE0290B2
:10412000CDF804B0CDF800A04B46424624493846AD
:10413000FEF782FC0DF11F0303930DF11E030293A2
:1041400009AB01930DF11D03009307AB08AA2946A3
:104150001C480068FFF7AAFA0028B0D0DDF82080DC
:104160009DF81C909DF91DA04FF08441099802F024
:1041700001F802F04FF99DF91E309DF81F20002A2A
:1041800091D0114A90E711493846FEF755FC4FF09F
:104190002C08AAE70E4BD3F8F0270E493846FEF755
:1041A0004BFC0D493846FEF747FC0BB0BDE8F08FDD
:1041B0009868000890680008CC680008306900081A
:1041C0009C68000864010020886800081C690008D9
:1041D00000F0FF1F80690008BC6900082DE9F04766
:1041E0008AB0044600230593069307930893099326
:1041F0000846FEF7BBF90578702D39D0632D45D000
:104200002021FEF767F90378002B48D0FEF7AEF9BE
:1042100007462021FEF75EF9064603780BB9642DA8
:1042200044D1002306F8013B3846FDF7C5FD814621
:104230003046FEF79BF90646B9F11F0F3BD0642DBF
:104240003ED04FF000084FF07E5AB8F1040F62DC08
:1042500020213046FEF73EF907460378002B3AD17D
:10426000B8F1020F37DC55492046FEF7E5FB1AE0AE
:10427000534B1B68002BFBD1514D2C605149524BC5
:104280001868FFF796FA00232B600CE04E4B186875
:10429000FFF7E4FA4D492046FEF7CEFB03E047491D
:1042A0002046FEF7C9FB0AB0BDE8F0874349204627
:1042B000FEF7C2FBF7E746492046FEF7BDFBF2E7F3
:1042C0004946414B1868FFF7B1F90246414920467B
:1042D000FEF7B2FBE7E700233B703046FEF72DF90F
:1042E000B8F1030F0BD00AAB03EB880343F8140CAF
:1042F000781CFEF73BF9064608F10108A5E71021F6
:104300003046FEF7EEF901F0E1FE4FF05E5101F0AC
:1043100031FF8246ECE7742D17D09DF924300293CB
:10432000CDF804A09DF91C3000939DF81830059A33
:10433000494625480068FFF712FC431D042B32D87C
:10434000DFE803F0262C201A14009DF92430029394
:10435000CDF804A09DF91C3000939DF81830059A03
:10436000494619480068FFF7E1FBE6E7059A1A4954
:104370002046FEF761FB96E7069A18492046FEF7AD
:104380005BFB90E7079A16492046FEF755FB8AE744
:10439000059A14492046FEF74FFB84E71249204650
:1043A000FEF74AFB7FE7012806DD104B0246104965
:1043B0002046FEF741FB76E70E4BF7E7EC69000875
:1043C00068010020993E000864010020C8690008C7
:1043D000006A0008146A00082C6A0008406A000895
:1043E000546A0008686A0008906A0008C4690008F6
:1043F000AC6A00088468000810B504460C4B1B78B2
:104400008BB172B60B4B1868FFF790FC0A49204637
:10441000FEF712FBFEF7E3FB024662B607492046B1
:10442000FEF70AFB10BD0649FEF706FBFAE700BFE0
:104430009C00002064010020D86A0008E86A000897
:10444000046B000810B5044672B6FEF723FC62B692
:1044500038B91E20FDF75CF804492046FEF7ECFA57
:1044600010BD03492046FEF7E7FAF9E7486B00085C
:104470005C6B000808B501F043FD2DE9F8430546E3
:1044800088461746002607E008F80600013623781C
:104490002C2B13D1BE4211D22C212846FEF71AF83C
:1044A000044690F80090002303702846FDF784FC32
:1044B000254605F8019B1F28E6D1E8E73046BDE810
:1044C000F88300002DE9F04184B006460846FEF767
:1044D0004DF80446FEF731F8804620212046FDF7CE
:1044E000F9FF03784BB10A2201A90130FFF7C5FF9C
:1044F00007463046FDF7CCFC20E019493046FEF770
:104500009BFA04B0BDE8F08104F110036B4413F88A
:104510000C0CFDF717FC03462A4612493046FEF7FD
:104520008BFA0134104DBC42EEDB10493046FEF7E9
:1045300083FAB8F1FF3F01D008F1FF383046FDF7AC
:10454000A1FC0028DDD1B8F1000F02DD084D0024E8
:10455000E9E7B8F1FF3FD4D1054D0024E3E700BF00
:10456000746B0008946B0008C8680008446B00086E
:104570008468000870B50120FDF7EAFB642303FBA3
:1045800000F0104B83FB00230344C017C0EBA314BF
:104590000D4DA988286800F09BFF0C4E0021304685
:1045A00001F043FA0120FDF7D3FB81B2304601F060
:1045B0003CFAA988286800F089FF21461420FDF7FD
:1045C000DDFB70BD090402811401002000300140B0
:1045D00070B50220FDF7BCFB642303FB00F0104B19
:1045E00083FB00230344C017C0EBA3140D4DA9881F
:1045F000286800F06DFF0C4E0121304601F015FADD
:104600000220FDF7A5FB81B2304601F00EFAA98821
:10461000286800F05BFF21461520FDF7AFFB70BD59
:1046200009040281140100200030014070B503200C
:10463000FDF78EFB642303FB00F0104B83FB00238C
:104640000344C017C0EBA3140D4DA988286800F0DF
:104650003FFF0C4E0221304601F0E7F90320FDF741
:1046600077FB81B2304601F0E0F9A988286800F0B4
:104670002DFF21461620FDF781FB70BD0904028144
:10468000140100200030014070B50420FDF760FBEC
:10469000642303FB00F0104B83FB00230344C0178B
:1046A000C0EBA3140D4DA988286800F011FF0C4E33
:1046B0000321304601F0B9F90420FDF749FB81B22E
:1046C000304601F0B2F9A988286800F0FFFE2146C3
:1046D0001720FDF753FB70BD09040281140100206F
:1046E00000300140036ED3B14FF47A73036604E0E7
:1046F000036E002B07DD01233BB1826DC36D9A422F
:10470000F6D00023F8E70023F6E7836D5A1C826594
:1047100003F03F03034419764FF0FF3343617047C2
:10472000A0F10400FFF7DEBF10B50446017C0022B3
:1047300001F5C0618068FEF718FE617C3F2900D951
:1047400010BD002201F5B061A068FEF70EFEF7E78C
:1047500010B504460846144B2360144B6360144B99
:10476000236014336360A160E26001232374FF239C
:1047700063744FF0FF3363610023A3654022E26559
:104780004FF47A7222661F2284F86420A36684F8AC
:104790007830E36784F888302146FEF7D7FD20465D
:1047A000FFF7C2FF204610BD68640008EC6E0008E9
:1047B000A870000808B501748068FEF7F9FD08BD0F
:1047C00010B582B004468DF80010ADF801309DF8A8
:1047D00010308DF80330059B0193437C93420DD13B
:1047E000002384F87830A068617C03685C68082343
:1047F0006A4601F5C061A04702B010BD42748068EE
:10480000FEF7D6FDECE7B1F8012045F201039A422C
:1048100011D0012380F888300B7880F88030B1F80F
:104820000130A0F88130CB7880F883304B68C0F835
:104830008430002070470B78402B01D00020704757
:104840004FF0FF330B714B7100238B71CB71412201
:104850000A704FF47A72026683654023C365CB7891
:1048600043610120704700002DE9F04184B0064605
:104870000C46B1F80120C2F3C017CD7825B1013D37
:1048800005EBD575C5F3470503AB00932B4602F046
:104890003F023946F068FEF756FF80462378402BEA
:1048A0000DD0232B3DD0802323700023237163710F
:1048B0000223A3710623E37104B0BDE8F08130B395
:1048C0000079FDF79DFA028BE37823B9039B6360BF
:1048D00043232370F0E713F0010F09D098F8073055
:1048E00042EA034298F9083042EA03626260EFE765
:1048F0001449D8F8000001F03DFC01F08BFD20F0D8
:104900007F4398F9062043EA02636360E0E780236F
:1049100023700023237163710223A3710623E371C3
:10492000CAE70028BFD06368002BBCD1B4F80120CF
:104930002B4602F03F023946F068FEF725FE602361
:104940002370B9E700007A440B78232B00D070471E
:104950002DE9F04184B006460C461546CB7883B964
:104960004B68B3F1005F04D323F00052B2F5006F3F
:1049700003D2B3666023237019E04FF0FF338366E0
:104980000CE0876EB7F1FF3F01D0012B12D096F9F2
:104990007480B8F1000F01D0022B1DD0802323704A
:1049A0000023237163710223A3710623E37104B012
:1049B000BDE8F081486880B2FDF712FAA6F87000F1
:1049C0006368C3F3054386F8733063681B1686F883
:1049D00074301D28CED9E1E7606840F3170001F07C
:1049E00075FB154901F07AFCF06663681B1686F8C2
:1049F0007230A5B102930190CDF8008096F8733023
:104A00003A4696F87010F068FFF7A9F8002386F888
:104A100074304FF0FF33B3660028ABDABEE7029381
:104A20000190CDF8008096F873303A4696F87010F1
:104A3000F068FFF77BF8E9E700007A4438B50446F0
:104A40000D460A7802F06003602B31D0B1F80130D6
:104A5000B3F5005F5AD003F47F40B0F5045F55D042
:104A6000E16819B1B3F5405F00F0858021B143F2F0
:104A7000010C634500F0858019B1B0F5445F00F08A
:104A8000868045F203018B4200F0868045F20401E6
:104A90008B4240F09B80402A00F0918080232B7055
:104AA00000232B716B710223AB710623EB7119E0AC
:104AB00002F010020A700122072A0EDCE36DA16DDC
:104AC0005B1A402B09D0E36D591CE16503F03F03ED
:104AD00023441B7EAB540132EEE7E36DA16D5B1AFC
:104AE000402B09D0A068217C03685C6808232A4613
:104AF00001F5B061A04738BD2B7843F001032B705E
:104B0000C2F1080243EA42032B70EBE7E87803F4B2
:104B10007F42B2F5045F0CD01D2822D82B78232BBE
:104B20000DD0402BDED1FDF70DF9686043232B70CB
:104B3000D8E71B029BB21844FDF752F9ECE769680D
:104B4000FDF7E2F810B960232B70CBE780232B70C0
:104B500030232B7100236B710923AB710623EB719A
:104B6000C0E780232B7000232B716B710223AB7184
:104B70000623EB71B6E7002229462046FFF7E4FE44
:104B8000B0E7012229462046FFF7DEFEAAE72946C4
:104B90002046FFF769FEA5E7402A09D080232B7045
:104BA00000232B716B710223AB710623EB7199E724
:104BB000E878FEF7A3F8686043232B7092E7E87863
:104BC000FEF7AEF8686043232B708BE7294620463A
:104BD000FFF719FE002885D18DE70000F0B583B0FE
:104BE00004461546037C03F5C0638B4206D0467C21
:104BF00006F5B0638B4205D003B0F0BD1146FFF758
:104C00001DFFF9E7B2F80170A7F540539BB2012BE5
:104C100008D92B78803B18BF012384F878306B6863
:104C2000E367E9E7D378ABB1012BF2D11349C06E4A
:104C300001F0A0FA01F0EEFB94F9723040EA036350
:104C40000193022300933B46324623212046FFF77F
:104C5000B7FDDEE7B0F8703090F8732043EA024306
:104C600090F9742043EA02630193012300933B46C9
:104C700032462321FFF7A4FDCBE700BF00007A44B2
:104C80008368DB075EBF836843F00103836070477E
:104C9000034AD2F8083443F40003C2F808347047DA
:104CA00000200140836823F460230B438360836802
:104CB00043F4801383607047836800F1080243F077
:104CC0000803836013681B07FCD47047836843F0B4
:104CD0000403836070478068C0F38000704708B5A4
:104CE0000246FFF7F3FF1046FFF7F5FF0028FAD161
:104CF00008BD0022134610B501FA02F403321E2A41
:104D000043EA0403F8D10022036101FA02F40332FA
:104D1000182A43EA0403F8D1C36010BD836823F066
:104D2000010383607047436843F4807343607047B6
:104D3000836823F4006383607047836843F0020351
:104D4000836070471029F0B50FD800276FF03B0340
:104D50000124BC463E46E5B2A94207D2013946EAE3
:104D60000151C162C0F830C04763F0BD062C09D8BC
:104D7000157803F13C0E05FA0EF52F43013401328C
:104D80000533E8E7073D052D157806D803F11E0E1B
:104D900005FA0EF54CEA050CF0E79D402E43EDE7D1
:104DA000836800F1080243F48003836013685B02A8
:104DB000FCD47047836843F48073836070470000BD
:104DC000044B98420CBF40F2192040F21A2000F028
:104DD00048BD00BF006400402DE9F34104688846E7
:104DE00024F0020404600468964644F00104046060
:104DF0004FF6FF749DF820C09DF824109DF82820E0
:104E00009DF83C609DF840700194019C051D013C9B
:104E1000019414B14468E407F7D54468E4076ED5FB
:104E20000024C4610468B8F1000F4FD044F080043E
:104E300004600468BEF1000F4BD044F040040460ED
:104E4000002B49D0036843F0200303600368BCF1E2
:104E5000000F45D043F0100303600368002942D0DF
:104E600043F0080303600368002A3FD043F00403C3
:104E70000360C369002F3CD043F00043C361C369A2
:104E8000002E39D043F08043C3610E9B0D99013B46
:104E9000C3F309030B430C99C2690B430B990B43F2
:104EA0001343C361036823F0010303604FF6FF73EC
:104EB0000193019B013B019313B12B68DB07F8D4ED
:104EC000406800F0010002B0BDE8F08124F08004E9
:104ED000AEE724F04004B2E7036823F02003B4E710
:104EE00023F01003B8E723F00803BBE723F0040323
:104EF000BEE723F00043C1E723F08043C4E701206D
:104F0000E1E70000F0B50125234C9DF81C70D4F8B2
:104F10000066854046F00106C4F80066D4F81CE639
:104F2000EE432EEA050EC4F81CE639B3D4F80C168D
:104F30002943C4F80C162AB3D4F804262A4300F1F6
:104F4000006000F6C840C4F80426C0000360069A5A
:104F5000059B4360104BCAB1D3F814262A43C3F80B
:104F6000142627B1D3F81C262A43C3F81C26D3F8ED
:104F7000002622F00102C3F80026F0BDD4F80C167A
:104F80003140D6E7D4F804263240D8E7D3F81426C7
:104F90001640C3F81466E4E70060004030B4BDF882
:104FA00008409DF8105043EA0443029341EA02434B
:104FB00000220495114630BCFFF7A4BF30B4BDF801
:104FC00008409DF8105044EA0344049542EA014326
:104FD0000294012230BC0021FFF794BF1FB500925C
:104FE00001229DF81840CDE901340B461146FFF728
:104FF00089FF04B010BD43690B43436170474369A7
:1050000023EA0103436170472DE9F041804680683F
:105010009DF818E04501079E2AD4D8F8080004013D
:105020002AD4D8F80800C00050D54FF4D07502201B
:1050300005EB080422B3C90041F0040145F808104B
:105040001BB1236843F002032360636823F00F035E
:10505000636062680EF00F03134363600EF1FF3369
:10506000072B2AD8DFE803F02623201B1815120E81
:105070004FF4C0750020DBE74FF4C8750120D7E777
:105080004905DBE70027F37963F31F67B37963F31F
:105090001747737963F30F27337963F307074FF0EB
:1050A000000CF37863F31F6CB37863F3174C7378D9
:1050B00063F30F2C337863F3070CC4F808C0E76080
:1050C000236843F001032360BDE8F0814FF0FF3017
:1050D000FAE721B9C36843F02003C360704703694E
:1050E00043F020030361704719B9C06800F0030062
:1050F00070470069FAE72DE9F743DDF82890044688
:10510000DDE90E56FFF7F0FF0F4680464FF4E071E1
:105110004FF4D870CDE9000102A901EB870151F8E5
:1051200008CC54F80C1004EB0C0011F0040115BF6E
:10513000012189F8001089F8001054F80C1016BFEE
:1051400054F80C10490DC908196054F80C100B9B49
:10515000C1F34001197041680C9B090A197041683C
:105160000D9B01F00F01197016B143681B0C3380C1
:105170008668C368C6F307216970C6F30741A97042
:10518000C3F307212E702B71C6F307666971C3F351
:105190000741C3F30763EE70A971EB711AB1394689
:1051A0002046FFF796FF404603B0BDE8F0830000BD
:1051B000024A936843F00103936070470030024055
:1051C000014B18601868704700300240002310B58A
:1051D000044A8B4201DB106810BD50F823400133B4
:1051E0001460F6E700300240014BB3F8E007704767
:1051F00000F0FF1F14230022013903FB01039A6012
:10520000DA601A615A610F23426889008B401343A8
:1052100043607047013989008A4042607047013914
:10522000036889008A401A4214BF01200020704799
:1052300014230139594308300B5823F440630B50B1
:105240000B5813430B50704714230139594308304E
:105250000B5823F440730B500B5813430B507047FB
:1052600014230139594308300B5843F080030B5085
:10527000704714230139594308300B5843F0200379
:105280000B500B5823F480430B5070471423013903
:10529000594308300B5843F010030B507047142348
:1052A0000139594308300B5843F001030B50704744
:1052B00014230139594308300B5823F001030B50D4
:1052C00070471423013903FB01008368DB0758BFD3
:1052D000026170471423013903FB01008368DB0777
:1052E00058BF426170471423013959430C300858A4
:1052F00080B270471423013959430C300A5070476B
:1053000038B5064DEC68FFF76FFFB0F5007F84BF3E
:10531000EB6C1C4304F0350038BD00BF0020024098
:1053200038B504460D4600F085F8FFF75DFFB0F58F
:10533000007F124B17D9124A944214D91A6D42F0C9
:1053400001021A65258000F075F8FFF74DFFB0F5F2
:10535000007F0A4B0CD90A4A944209D91A6D22F0EF
:1053600001021A6538BD1A6942F001021A61E9E7C3
:105370001A6922F001021A61F4E700BF002002401E
:10538000FFFF070810B5044600F054F8FFF72CFFA4
:10539000B0F5007F164B1BD9164A944218D91A6DE6
:1053A00042F002021A655C651A6D42F040021A650D
:1053B00000F040F8FFF718FFB0F5007F0C4B11D953
:1053C0000C4A94420ED91A6D22F002021A6510BDE1
:1053D0001A6942F002021A615C611A6942F04002E5
:1053E0001A61E5E71A6922F002021A61EFE700BFCD
:1053F00000200240FFFF0708034A136823F0070359
:1054000003431360704700BF00200240034B044A6F
:105410005A6002F188325A60704700BF0020024093
:1054200023016745024A136943F080031361704703
:105430000020024008B5FFF763FFC307FBD408BD97
:1054400038B505460C4689B2FFF76AFF210CA81C47
:10545000BDE83840FFF764BF2DE9F0414FF00F0C75
:1054600000250768466843FA05F4E4071CD5072DB4
:1054700094BFBE46B646ACB24FEA84048ABF203C15
:10548000A4B2A4B20CFA04F82EEA080804F1020E41
:1054900002FA0EFE01FA04F44EEA040444EA080497
:1054A000072D94BF274626460135102DDBD1076016
:1054B0004660BDE8F0810000034A536823F0E063D2
:1054C0000B43034353607047000001400161704784
:1054D000090401617047806808407047C36801EAA9
:1054E000030221EA030141EA024101617047000021
:1054F0004AF6AA22014B1A60704700BF00300040F4
:10550000062824D8DFE800F004090E13181D200037
:10551000104B1868C0F3406070470E4B1868C0F31A
:10552000C06070470B4B1868C0F340707047094B60
:105530001868C0F340407047064B1868C0F340003D
:105540007047044B186AF9E7024B586AF6E70020E7
:10555000704700BF00100240024608B51046FFF732
:10556000CFFF0028FAD008BD06282AD8DFE800F0CF
:10557000040A0F14191E2400124A136843F08073A2
:10558000136070470F4A136843F08063F8E70D4AD1
:10559000136843F08053F3E70A4A136843F48033F7
:1055A000EEE7084A136843F00103E9E7054A136A86
:1055B00043F0010313627047024A536A43F0010348
:1055C0005362704700100240034A536823F00303FC
:1055D00003435360704700BF00100240034A536802
:1055E00023F4701343EA8043536070470010024075
:1055F000034AD36A23F4706343EA0023D3627047FB
:1056000000100240034AD36A23F4704343EA003394
:10561000D362704700100240034A536823F480337A
:1056200043EA00435360704700100240034A536846
:1056300023F4003343EA40435360704700100240B4
:10564000024B186A00F40040704700BF001002408F
:10565000024A136A43F40043136270470010024089
:1056600006283BD8DFE800F0353535253504150030
:105670001B4B1A6A42F001021A621A6A9007FCD5A3
:105680001A6A22F440721A621A6A42F480721A622A
:105690007047134B5A6A42F001025A625A6A9107E4
:1056A000FCD51A6A22F440721A621A6A42F4007235
:1056B000EDE70B4B1A6842F480321A601A689203C5
:1056C000FCD51A6A22F440721A621A6A42F44072D5
:1056D000DDE7034A136A23F440731362704700BF87
:1056E00000100240034A536823F4404343EA8033E6
:1056F0005360704700100240034A536823F460531C
:1057000043EAC0235360704700100240034A5368C5
:1057100023F4E06343EA0023536070470010024023
:10572000034A536823F0F00343EA001353607047C1
:1057300000100240044B5A6818B142F480025A60CB
:10574000704722F48002FAE700100240034AD36A4D
:1057500023F00F030343D362704700BF00100240E1
:10576000034AD36A23F0F00343EA0013D36270477D
:1057700000100240044BDA6A18B142F48032DA6257
:10578000704722F48032FAE70010024010B5044658
:105790004378012B0CBF03200420FFF7E5FEFFF741
:1057A000DBFEA078FFF7BCFFE078FFF7AFFF2079C2
:1057B000FFF7A2FF6079FFF795FF207BFFF7BAFFA5
:1057C000A079FFF719FE2078FFF708FF6078FFF750
:1057D00023FFE07901282DD9FFF7B8FF207A08B11F
:1057E000FFF7C8FF607A08B1FFF7BAFFA07A30B1BF
:1057F000FFF7FEFE0120FFF7B7FEFFF7ADFEE07AF0
:1058000030B1FFF7FFFE0220FFF7AEFEFFF7A4FE68
:105810000020FFF7A9FEFFF79FFE0220FFF7D4FE4E
:105820002269064B1A606269054B1A60A269054B32
:105830001A6010BDFFF7FAFED0E700BFA0000020FD
:10584000A8000020A40000200122430903F18043A6
:1058500003F50433196800F01F0082400A431A6000
:1058600070470122430903F1804303F504331968AB
:1058700000F01F00824011431960196821EA0202FA
:105880001A607047054BD3F804289206FBD5D3F86D
:10589000042842F01002C3F804287047002000409A
:1058A000054BD3F8042822F01002C3F80428D3F8DB
:1058B00004289206FBD570470020004038B5044606
:1058C00000254FF46770FFF7BFFF40F29B30FFF7F2
:1058D000BBFF00F039FB2046124CFFF7C1FEC4F8B5
:1058E0000058C4F80458FFF7B3FEFFF7CBFF4FF69C
:1058F000FF73C4F80858C4F80C58C4F81858C4F812
:105900001C58C4F82038C4F82438FFF7C9FFD4F86D
:10591000043823F00803C4F80438D4F804381B070B
:10592000FBD538BD0020004008B5FFF7ABFF064BA4
:1059300082B2C0F30340C3F80C28C3F80808BDE8DE
:105940000840FFF7ADBF00BF00200040034BD3F875
:105950001808D3F81C3843EA004070470020004084
:1059600008B5FFF78FFF054B020C80B2C3F818286B
:10597000C3F81C08BDE80840FFF792BF00200040B4
:1059800008B54FF46770FFF75FFF40F29B30FFF7F9
:105990005BFF00F0D9FA084BD3F8042822F0080284
:1059A000C3F80428D3F804281107FBD5D3F804283A
:1059B0009206FBD508BD00BF0020004038B5054663
:1059C0004FF467700C46FFF73FFF40F29B30FFF744
:1059D0003BFFFFF735FE18B1BDE83840FFF7D0BFF9
:1059E0002846FFF76BFF2046BDE83840FFF79CBF15
:1059F0000A4B98420FD003F57443984204D0A3F5A4
:105A00007843984204D070474FF4C670FFF729BF1F
:105A100040F20E20FAE740F20F20F7E7003C00408A
:105A2000036843F0400303607047C1608368DB078D
:105A3000FCD5C06880B27047036843F4007303600C
:105A4000436823F0040343607047036843F48073A2
:105A50000360704703299FBF036823F003031943C2
:105A60000160704730B50468049D04F441542C4330
:105A7000039D2C431C43144343680C4344F004042B
:105A800043F0040343600460002030BDC3680B434F
:105A9000C360704703690B4214BF012000207047A8
:105AA000C94301617047036843F080030360704796
:105AB000036801F0600123F0600303600368194389
:105AC00001607047036823F01003036070470368A8
:105AD00043F0010303607047036823F00103036090
:105AE000704781627047C162704706297AD8DFE843
:105AF00001F00479337963799200836923F0030319
:105B0000836183698361836923F070038361072A5A
:105B100068D8DFE802F03304090D1115191D8369F7
:105B200043F0100383617047836943F02003F9E772
:105B3000836943F03003F5E7836943F04003F1E7FD
:105B4000836943F05003EDE7836943F06003E9E7BD
:105B5000836943F07003E5E7836923F4407383614D
:105B600083698361836923F4E0438361072A39D819
:105B7000DFE802F004060A0E12161A1E8369D1E746
:105B8000836943F48053CDE7836943F40053C9E745
:105B9000836943F44053C5E7836943F48043C1E715
:105BA000836943F4A043BDE7836943F4C043B9E785
:105BB000836943F4E043B5E7C36923F00303C3619A
:105BC000C369C361C36923F07003C361072A09D89D
:105BD000DFE802F03304090D1115191DC36943F004
:105BE0001003C3617047C36943F02003F9E7C36939
:105BF00043F03003F5E7C36943F04003F1E7C369BD
:105C000043F05003EDE7C36943F06003E9E7C3697C
:105C100043F07003E5E7C36923F44073C361C369CC
:105C2000C361C36923F4E043C361072ADAD8DFE81C
:105C300002F004060A0E12161A1EC369D1E7C369E0
:105C400043F48053CDE7C36943F40053C9E7C36904
:105C500043F44053C5E7C36943F48043C1E7C369D4
:105C600043F4A043BDE7C36943F4C043B9E7C36944
:105C700043F4E043B5E7062912D8DFE801F0041148
:105C800009110D111200836943F008038361704705
:105C9000836943F40063F9E7C36943F00803C36110
:105CA0007047C36943F40063F9E7062909D8DFE8C0
:105CB00001F0041509190D1D1100036A23F00203F8
:105CC00003627047036A23F02003F9E7036A23F4B1
:105CD0000073F5E7036A23F40053F1E7036A23F046
:105CE0000803EDE7036A23F08003E9E7036A23F47E
:105CF0000063E5E7062909D8DFE801F00415091972
:105D00000D1D1100036A43F0010303627047036A2B
:105D100043F01003F9E7036A43F48073F5E7036A7D
:105D200043F48053F1E7036A43F00403EDE7036AA9
:105D300043F04003E9E7036A43F48063E5E706299B
:105D40000CD8DFE801F0040B060B080B0A004263D5
:105D5000704782637047C26370470264704743694B
:105D60000B4343617047406A7047416270470000CF
:105D7000064A074B90421B6804BF064B1B6803EBA7
:105D80005103B3FBF1F18160704700BF003801405F
:105D9000A8000020A4000020C36808290CBF23F439
:105DA000805343F48053C3607047036923F4405326
:105DB0000B4303617047C36823F4C0630B43C360A4
:105DC0007047C36823F00C030B43C36070474369FB
:105DD00023F440730B4343617047C36843F400539B
:105DE000C360704738B504460D4600F018F82946E0
:105DF0002046BDE8384000F00AB8436943F040034C
:105E000043617047436943F0800343617047C1F3C6
:105E10000801416070474068C0F30800704703689C
:105E20001B06FCD5704703680B4214BF01200020FD
:105E30007047FEE77047000038B5DFF8C0D0234B4D
:105E4000234A24498B4229D31A46002022498A42F8
:105E500029D3224AD81ED21A22F00302884288BFD0
:105E600000224FF0A53113441D4A93421ED34FF038
:105E7000E022D2F8143D1B4C43F400731A4DC2F8D3
:105E8000143DAC4215D3194C194DAC4215D3FBF758
:105E900067FB184C184DAC4213D338BD52F8040BB5
:105EA00043F8040BCEE742F8040BD0E743F8041B99
:105EB000DBE754F8043B9847E3E754F8043B984782
:105EC000E3E754F8043B9847E5E700BF00000020F3
:105ED00050710008AC0000206C0100206F01002010
:105EE000005000204C7100084C7100084C710008F3
:105EF00050710008507100085071000800500020D7
:105F00004FF0E023014AC3F80C2DFEE70400FA0528
:105F1000012243099B0003F1604300F01F0003F5D9
:105F2000614382401A607047432893BF00F160408C
:105F3000044B00F00F0000F564408CBFC1540170A9
:105F4000704700BF14ED00E0024A136843F4807309
:105F5000136070470070004080F0004002E000BF16
:105F600081F0004142001FBF5FEA410392EA030F44
:105F70007FEA226C7FEA236C6AD04FEA1262D2EB8E
:105F80001363C1BFD218414048404140B8BF5B4293
:105F9000192B88BF704710F0004F40F4000020F02C
:105FA0007F4018BF404211F0004F41F4000121F042
:105FB0007F4118BF494292EA030F3FD0A2F101028C
:105FC00041FA03FC10EB0C00C3F1200301FA03F1CA
:105FD00000F0004302D5494260EB4000B0F5000FED
:105FE00013D3B0F1807F06D340084FEA310102F1AC
:105FF0000102FE2A51D2B1F1004F40EBC25008BF5E
:1060000020F0010040EA03007047490040EB000027
:10601000013A28BFB0F5000FEDD2B0FA80FCACF128
:10602000080CB2EB0C0200FA0CF0AABF00EBC25055
:1060300052421843BCBFD0401843704792F0000F43
:1060400081F4000106BF80F400000132013BB5E796
:106050004FEA41037FEA226C18BF7FEA236C21D00C
:1060600092EA030F04D092F0000F08BF0846704771
:1060700090EA010F1CBF0020704712F07F4F04D13F
:10608000400028BF40F00040704712F100723CBF52
:1060900000F50000704700F0004343F0FE4040F47C
:1060A000000070477FEA226216BF08467FEA23633A
:1060B0000146420206BF5FEA412390EA010F40F425
:1060C000800070474FF0000304E000BF10F0004371
:1060D00048BF40425FEA000C08BF704743F0964358
:1060E00001464FF000001CE050EA010208BF704773
:1060F0004FF000030AE000BF50EA010208BF7047FA
:1061000011F0004302D5404261EB41015FEA010C0E
:1061100002BF84460146002043F0B64308BFA3F106
:106120008053A3F50003BCFA8CF2083AA3EBC253E8
:1061300010DB01FA02FC634400FA02FCC2F1200207
:10614000BCF1004F20FA02F243EB020008BF20F03E
:106150000100704702F1200201FA02FCC2F12002A4
:1061600050EA4C0021FA02F243EB020008BF20EA99
:10617000DC7070474FF0FF0C1CEAD0521EBF1CEAC7
:10618000D15392EA0C0F93EA0C0F6FD01A4480EAB5
:10619000010C400218BF5FEA41211ED04FF000639E
:1061A00043EA501043EA5111A0FB01310CF00040CA
:1061B000B1F5000F3EBF490041EAD3715B0040EAF0
:1061C000010062F17F02FD2A1DD8B3F1004F40EBC0
:1061D000C25008BF20F00100704790F0000F0CF093
:1061E000004C08BF49024CEA502040EA51207F3A57
:1061F000C2BFD2F1FF0340EAC250704740F4000032
:106200004FF00003013A5DDC12F1190FDCBF00F022
:1062100000407047C2F10002410021FA02F1C2F1D0
:10622000200200FA02FC5FEA310040F1000053EA6C
:106230004C0308BF20EADC70704792F0000F00F0BA
:10624000004C02BF400010F4000F013AF9D040EAC0
:106250000C0093F0000F01F0004C02BF490011F454
:10626000000F013BF9D041EA0C018FE70CEAD15352
:1062700092EA0C0F18BF93EA0C0F0AD030F0004CD2
:1062800018BF31F0004CD8D180EA010000F0004086
:10629000704790F0000F17BF90F0004F084691F044
:1062A000000F91F0004F14D092EA0C0F01D142027E
:1062B0000FD193EA0C0F03D14B0218BF084608D147
:1062C00080EA010000F0004040F0FE4040F4000091
:1062D000704740F0FE4040F4400070474FF0FF0C24
:1062E0001CEAD0521EBF1CEAD15392EA0C0F93EA6B
:1062F0000C0F69D0A2EB030280EA010C49024FEABD
:10630000402037D04FF0805343EA111143EA101375
:106310000CF000408B4238BF5B0042F17D024FF42D
:10632000000C8B4224BF5B1A40EA0C00B3EB510F08
:1063300024BFA3EB510340EA5C00B3EB910F24BFF1
:10634000A3EB910340EA9C00B3EBD10F24BFA3EB76
:10635000D10340EADC001B0118BF5FEA1C1CE0D13E
:10636000FD2A3FF650AF8B4240EBC25008BF20F0F1
:10637000010070470CF0004C4CEA50207F32C2BF45
:10638000D2F1FF0340EAC250704740F400004FF0E2
:106390000003013A37E792F0000F00F0004C02BF13
:1063A000400010F4000F013AF9D040EA0C0093F0DD
:1063B000000F01F0004C02BF490011F4000F013B37
:1063C000F9D041EA0C0195E70CEAD15392EA0C0F9F
:1063D00008D142027FF47DAF93EA0C0F7FF470AFD7
:1063E000084676E793EA0C0F04D14B023FF44CAF1A
:1063F00008466EE730F0004C18BF31F0004CCAD1AF
:1064000030F000427FF45CAF31F000437FF43CAFEA
:106410005FE700BF4FEA4002B2F1FE4F0FD34FF0EB
:106420009E03B3EB12620DD94FEA002343F0004301
:1064300010F0004F23FA02F018BF404270474FF0AF
:106440000000704712F1610F01D1420205D110F036
:10645000004008BF6FF0004070474FF000007047E9
:106460000000000000000000691200086912000826
:106470000000000000000000511100086111000838
:10648000000204064469676974616C20492F4F203B
:10649000436F6E74726F6C004D6F64650000000096
:1064A000303D4F46462C20313D52554E00000000F5
:1064B00054696D654F75740043616E4374726C006E
:1064C000303D4F46462C20313D4F4E004E6F6465A7
:1064D0004964000054494D203320436F6E74726F3D
:1064E0006C00000054696D335F4672657175656EAE
:1064F00063790000313D313030487A2C20323D350F
:106500003030487A2C20333D316B487A2C20343D92
:1065100031306B487A2C20353D3130306B487A0071
:1065200050574D335F4348330000000054696D33CA
:106530005F335F444300000054494D203420436FD3
:106540006E74726F6C00000054696D345F46726542
:106550007175656E6379000050574D345F43483163
:106560000000000054696D345F315F444300000057
:106570004D4F44450000000052756E54696D650032
:106580005365630049474E00434841524745000068
:10659000424D533100000000424D533200000000D4
:1065A00044696769506F74310000000025000000E5
:1065B00044696769506F743200000000446967697C
:1065C000506F74330000000044696769506F743481
:1065D0000000000050574D334348330050574D33AF
:1065E0004348335F44430000436F756E74000000FE
:1065F00050574D344348310050574D344348315F74
:106600004443000076657273696F6E00343D312E2D
:106610003030414B000000004350555F4C4F414427
:10662000000000000A4F4B0D0A0000004261756433
:106630002072617465206E6F772000004563686F7B
:10664000206F6E0D0A0000004563686F206F66665C
:106650000D0A0000656E61626C6575617274000000
:106660006661737475617274000000006661737412
:1066700075617274206E6F7420617661696C6162FD
:106680006C650D0A000000006563686F0000000083
:10669000556E6B6E6F776E20636F6D6D616E6420EB
:1066A00073657175656E63650D0A00002530385895
:1066B0003A253038583A253038580D0A0000000085
:1066C00044656661756C7473206C6F616465640DFC
:1066D0000A0000007365740067657400666C61678A
:1066E0000000000073747265616D00006A736F6E64
:1066F0000000000063616E007361766500000000B9
:106700006C6F6164000000007265736574000000C6
:1067100064656661756C74730000000068656C7078
:106720000000000073657269616C00006572726F31
:1067300072730000286E756C6C2900005B25755D16
:106740003A202573202D2025730D0A004E6F204519
:1067500072726F72730D0A0053544F5000000000A4
:1067600044455241544500005741524E000000003C
:10677000303D4E4F4E452C20313D544553544552EB
:10678000524F522C20323D43414E54494D454F55B6
:10679000542C0000544553544552524F52000000AF
:1067A00043414E54494D454F5554000063616E209E
:1067B00000000000727820007478200025732025E6
:1067C000642025642025642025662025640D0A00A8
:1067D0004E6F20706172616D657465722076616CB8
:1067E000756520676976656E0D0A00005365742033
:1067F0004F4B0D0A0000000056616C7565206F75E7
:1068000074206F662072616E67650D0A00000000DB
:10681000556E6B6E6F776E20706172616D65746519
:10682000722025730D0A000025660D0A0000000085
:10683000556E6B6E6F776E20706172616D657465F9
:10684000723A20272573270D0A0000004E6F20663C
:106850006C616720676976656E0D0A00686964641B
:10686000656E0000556E6B6E6F776E20666C6167AB
:106870000D0A0000466C6167206368616E676520E1
:106880004F4B0D0A00000000747275650000000097
:1068900066616C73650000007B00000025630D0AD3
:1068A000202020222573223A207B22756E697422D3
:1068B0003A222573222C226964223A25642C2276FE
:1068C000616C7565223A25662C0000002263616EBA
:1068D0006964223A25642C2263616E6F6666736573
:1068E00074223A25642C2263616E6C656E6774684D
:1068F000223A25642C2263616E6761696E223A2513
:10690000662C2263616E616464223A25642C2269DC
:10691000737278223A25732C00000000226973708C
:106920006172616D223A66616C73657D00000000E2
:10693000226973706172616D223A747275652C22DE
:106940006D696E696D756D223A25662C226D6178D0
:10695000696D756D223A25662C2264656661756CD9
:1069600074223A25662C2263617465676F727922FE
:106970003A222573222C2269223A25647D000000E8
:106980002C0D0A2020202273657269616C223A2046
:106990007B22756E6974223A22222C2276616C75F4
:1069A00065223A2225303858222C22697370617290
:1069B000616D223A66616C73657D00000D0A7D0D84
:1069C0000A00000073000000416C6C206D65737359
:1069D00061676520646566696E6974696F6E7320AE
:1069E000636C65617265640D0A0000004D69737324
:1069F000696E6720617267756D656E740D0A0000BF
:106A0000556E6B6E6F776E20706172616D65746527
:106A1000720D0A00256420656E74726965732072B8
:106A2000656D6F7665640D0A00000000496E766141
:106A30006C69642043414E2049642025780D0A008A
:106A4000496E76616C6964204F66667365742025B3
:106A5000640D0A00496E76616C6964206C656E672E
:106A600074682025640D0A0043616E6E6F74206D9A
:106A7000617020616E796D6F7265206974656D73E8
:106A800020746F2043414E2069642025640D0A0064
:106A90004D6178206D65737361676520636F756EF6
:106AA0007420726561636865640D0A0043414E207D
:106AB0006D6170207375636365737366756C2C20EC
:106AC0002564206D65737361676525732061637448
:106AD0006976650D0A00000043414E4D4150207318
